{
  "contractName": "LipToken",
  "abi": [
    {
      "inputs": [
        {
          "internalType": "string",
          "name": "_name",
          "type": "string"
        },
        {
          "internalType": "string",
          "name": "_symbol",
          "type": "string"
        }
      ],
      "stateMutability": "nonpayable",
      "type": "constructor"
    },
    {
      "inputs": [
        {
          "internalType": "address",
          "name": "sender",
          "type": "address"
        },
        {
          "internalType": "uint256",
          "name": "tokenId",
          "type": "uint256"
        },
        {
          "internalType": "address",
          "name": "owner",
          "type": "address"
        }
      ],
      "name": "ERC721IncorrectOwner",
      "type": "error"
    },
    {
      "inputs": [
        {
          "internalType": "address",
          "name": "operator",
          "type": "address"
        },
        {
          "internalType": "uint256",
          "name": "tokenId",
          "type": "uint256"
        }
      ],
      "name": "ERC721InsufficientApproval",
      "type": "error"
    },
    {
      "inputs": [
        {
          "internalType": "address",
          "name": "approver",
          "type": "address"
        }
      ],
      "name": "ERC721InvalidApprover",
      "type": "error"
    },
    {
      "inputs": [
        {
          "internalType": "address",
          "name": "operator",
          "type": "address"
        }
      ],
      "name": "ERC721InvalidOperator",
      "type": "error"
    },
    {
      "inputs": [
        {
          "internalType": "address",
          "name": "owner",
          "type": "address"
        }
      ],
      "name": "ERC721InvalidOwner",
      "type": "error"
    },
    {
      "inputs": [
        {
          "internalType": "address",
          "name": "receiver",
          "type": "address"
        }
      ],
      "name": "ERC721InvalidReceiver",
      "type": "error"
    },
    {
      "inputs": [
        {
          "internalType": "address",
          "name": "sender",
          "type": "address"
        }
      ],
      "name": "ERC721InvalidSender",
      "type": "error"
    },
    {
      "inputs": [
        {
          "internalType": "uint256",
          "name": "tokenId",
          "type": "uint256"
        }
      ],
      "name": "ERC721NonexistentToken",
      "type": "error"
    },
    {
      "inputs": [
        {
          "internalType": "address",
          "name": "owner",
          "type": "address"
        }
      ],
      "name": "OwnableInvalidOwner",
      "type": "error"
    },
    {
      "inputs": [
        {
          "internalType": "address",
          "name": "account",
          "type": "address"
        }
      ],
      "name": "OwnableUnauthorizedAccount",
      "type": "error"
    },
    {
      "anonymous": false,
      "inputs": [
        {
          "indexed": true,
          "internalType": "address",
          "name": "owner",
          "type": "address"
        },
        {
          "indexed": true,
          "internalType": "address",
          "name": "approved",
          "type": "address"
        },
        {
          "indexed": true,
          "internalType": "uint256",
          "name": "tokenId",
          "type": "uint256"
        }
      ],
      "name": "Approval",
      "type": "event"
    },
    {
      "anonymous": false,
      "inputs": [
        {
          "indexed": true,
          "internalType": "address",
          "name": "owner",
          "type": "address"
        },
        {
          "indexed": true,
          "internalType": "address",
          "name": "operator",
          "type": "address"
        },
        {
          "indexed": false,
          "internalType": "bool",
          "name": "approved",
          "type": "bool"
        }
      ],
      "name": "ApprovalForAll",
      "type": "event"
    },
    {
      "anonymous": false,
      "inputs": [
        {
          "indexed": true,
          "internalType": "address",
          "name": "owner",
          "type": "address"
        },
        {
          "indexed": false,
          "internalType": "uint256",
          "name": "id",
          "type": "uint256"
        },
        {
          "indexed": false,
          "internalType": "uint256",
          "name": "dna",
          "type": "uint256"
        }
      ],
      "name": "NewLip",
      "type": "event"
    },
    {
      "anonymous": false,
      "inputs": [
        {
          "indexed": true,
          "internalType": "address",
          "name": "previousOwner",
          "type": "address"
        },
        {
          "indexed": true,
          "internalType": "address",
          "name": "newOwner",
          "type": "address"
        }
      ],
      "name": "OwnershipTransferred",
      "type": "event"
    },
    {
      "anonymous": false,
      "inputs": [
        {
          "indexed": true,
          "internalType": "address",
          "name": "from",
          "type": "address"
        },
        {
          "indexed": true,
          "internalType": "address",
          "name": "to",
          "type": "address"
        },
        {
          "indexed": true,
          "internalType": "uint256",
          "name": "tokenId",
          "type": "uint256"
        }
      ],
      "name": "Transfer",
      "type": "event"
    },
    {
      "inputs": [
        {
          "internalType": "address",
          "name": "to",
          "type": "address"
        },
        {
          "internalType": "uint256",
          "name": "tokenId",
          "type": "uint256"
        }
      ],
      "name": "approve",
      "outputs": [],
      "stateMutability": "nonpayable",
      "type": "function"
    },
    {
      "inputs": [
        {
          "internalType": "address",
          "name": "owner",
          "type": "address"
        }
      ],
      "name": "balanceOf",
      "outputs": [
        {
          "internalType": "uint256",
          "name": "",
          "type": "uint256"
        }
      ],
      "stateMutability": "view",
      "type": "function"
    },
    {
      "inputs": [
        {
          "internalType": "uint256",
          "name": "tokenId",
          "type": "uint256"
        }
      ],
      "name": "getApproved",
      "outputs": [
        {
          "internalType": "address",
          "name": "",
          "type": "address"
        }
      ],
      "stateMutability": "view",
      "type": "function"
    },
    {
      "inputs": [
        {
          "internalType": "address",
          "name": "owner",
          "type": "address"
        },
        {
          "internalType": "address",
          "name": "operator",
          "type": "address"
        }
      ],
      "name": "isApprovedForAll",
      "outputs": [
        {
          "internalType": "bool",
          "name": "",
          "type": "bool"
        }
      ],
      "stateMutability": "view",
      "type": "function"
    },
    {
      "inputs": [
        {
          "internalType": "uint256",
          "name": "",
          "type": "uint256"
        }
      ],
      "name": "lips",
      "outputs": [
        {
          "internalType": "string",
          "name": "name",
          "type": "string"
        },
        {
          "internalType": "uint256",
          "name": "id",
          "type": "uint256"
        },
        {
          "internalType": "uint256",
          "name": "dna",
          "type": "uint256"
        },
        {
          "internalType": "uint8",
          "name": "level",
          "type": "uint8"
        },
        {
          "internalType": "uint8",
          "name": "rarity",
          "type": "uint8"
        }
      ],
      "stateMutability": "view",
      "type": "function"
    },
    {
      "inputs": [],
      "name": "name",
      "outputs": [
        {
          "internalType": "string",
          "name": "",
          "type": "string"
        }
      ],
      "stateMutability": "view",
      "type": "function"
    },
    {
      "inputs": [],
      "name": "owner",
      "outputs": [
        {
          "internalType": "address",
          "name": "",
          "type": "address"
        }
      ],
      "stateMutability": "view",
      "type": "function"
    },
    {
      "inputs": [
        {
          "internalType": "uint256",
          "name": "tokenId",
          "type": "uint256"
        }
      ],
      "name": "ownerOf",
      "outputs": [
        {
          "internalType": "address",
          "name": "",
          "type": "address"
        }
      ],
      "stateMutability": "view",
      "type": "function"
    },
    {
      "inputs": [],
      "name": "renounceOwnership",
      "outputs": [],
      "stateMutability": "nonpayable",
      "type": "function"
    },
    {
      "inputs": [
        {
          "internalType": "address",
          "name": "from",
          "type": "address"
        },
        {
          "internalType": "address",
          "name": "to",
          "type": "address"
        },
        {
          "internalType": "uint256",
          "name": "tokenId",
          "type": "uint256"
        }
      ],
      "name": "safeTransferFrom",
      "outputs": [],
      "stateMutability": "nonpayable",
      "type": "function"
    },
    {
      "inputs": [
        {
          "internalType": "address",
          "name": "from",
          "type": "address"
        },
        {
          "internalType": "address",
          "name": "to",
          "type": "address"
        },
        {
          "internalType": "uint256",
          "name": "tokenId",
          "type": "uint256"
        },
        {
          "internalType": "bytes",
          "name": "data",
          "type": "bytes"
        }
      ],
      "name": "safeTransferFrom",
      "outputs": [],
      "stateMutability": "nonpayable",
      "type": "function"
    },
    {
      "inputs": [
        {
          "internalType": "address",
          "name": "operator",
          "type": "address"
        },
        {
          "internalType": "bool",
          "name": "approved",
          "type": "bool"
        }
      ],
      "name": "setApprovalForAll",
      "outputs": [],
      "stateMutability": "nonpayable",
      "type": "function"
    },
    {
      "inputs": [
        {
          "internalType": "bytes4",
          "name": "interfaceId",
          "type": "bytes4"
        }
      ],
      "name": "supportsInterface",
      "outputs": [
        {
          "internalType": "bool",
          "name": "",
          "type": "bool"
        }
      ],
      "stateMutability": "view",
      "type": "function"
    },
    {
      "inputs": [],
      "name": "symbol",
      "outputs": [
        {
          "internalType": "string",
          "name": "",
          "type": "string"
        }
      ],
      "stateMutability": "view",
      "type": "function"
    },
    {
      "inputs": [
        {
          "internalType": "uint256",
          "name": "tokenId",
          "type": "uint256"
        }
      ],
      "name": "tokenURI",
      "outputs": [
        {
          "internalType": "string",
          "name": "",
          "type": "string"
        }
      ],
      "stateMutability": "view",
      "type": "function"
    },
    {
      "inputs": [
        {
          "internalType": "address",
          "name": "from",
          "type": "address"
        },
        {
          "internalType": "address",
          "name": "to",
          "type": "address"
        },
        {
          "internalType": "uint256",
          "name": "tokenId",
          "type": "uint256"
        }
      ],
      "name": "transferFrom",
      "outputs": [],
      "stateMutability": "nonpayable",
      "type": "function"
    },
    {
      "inputs": [
        {
          "internalType": "address",
          "name": "newOwner",
          "type": "address"
        }
      ],
      "name": "transferOwnership",
      "outputs": [],
      "stateMutability": "nonpayable",
      "type": "function"
    },
    {
      "inputs": [
        {
          "internalType": "uint256",
          "name": "_fee",
          "type": "uint256"
        }
      ],
      "name": "updateFee",
      "outputs": [],
      "stateMutability": "nonpayable",
      "type": "function"
    },
    {
      "inputs": [],
      "name": "withdraw",
      "outputs": [],
      "stateMutability": "payable",
      "type": "function"
    },
    {
      "inputs": [
        {
          "internalType": "string",
          "name": "_name",
          "type": "string"
        }
      ],
      "name": "createRandomLip",
      "outputs": [],
      "stateMutability": "payable",
      "type": "function"
    },
    {
      "inputs": [],
      "name": "getLips",
      "outputs": [
        {
          "components": [
            {
              "internalType": "string",
              "name": "name",
              "type": "string"
            },
            {
              "internalType": "uint256",
              "name": "id",
              "type": "uint256"
            },
            {
              "internalType": "uint256",
              "name": "dna",
              "type": "uint256"
            },
            {
              "internalType": "uint8",
              "name": "level",
              "type": "uint8"
            },
            {
              "internalType": "uint8",
              "name": "rarity",
              "type": "uint8"
            }
          ],
          "internalType": "struct LipToken.Lip[]",
          "name": "",
          "type": "tuple[]"
        }
      ],
      "stateMutability": "view",
      "type": "function"
    },
    {
      "inputs": [
        {
          "internalType": "address",
          "name": "_owner",
          "type": "address"
        }
      ],
      "name": "getOwnerLips",
      "outputs": [
        {
          "components": [
            {
              "internalType": "string",
              "name": "name",
              "type": "string"
            },
            {
              "internalType": "uint256",
              "name": "id",
              "type": "uint256"
            },
            {
              "internalType": "uint256",
              "name": "dna",
              "type": "uint256"
            },
            {
              "internalType": "uint8",
              "name": "level",
              "type": "uint8"
            },
            {
              "internalType": "uint8",
              "name": "rarity",
              "type": "uint8"
            }
          ],
          "internalType": "struct LipToken.Lip[]",
          "name": "",
          "type": "tuple[]"
        }
      ],
      "stateMutability": "view",
      "type": "function"
    },
    {
      "inputs": [
        {
          "internalType": "uint256",
          "name": "_lipId",
          "type": "uint256"
        }
      ],
      "name": "levelUp",
      "outputs": [],
      "stateMutability": "nonpayable",
      "type": "function"
    }
  ],
  "bytecode": "0x6080604052662386f26fc100006008553480156200001b575f80fd5b5060405162001e8d38038062001e8d8339810160408190526200003e91620001b1565b3382825f6200004e8382620002a3565b5060016200005d8282620002a3565b5050506001600160a01b0381166200008e57604051631e4fbdf760e01b81525f600482015260240160405180910390fd5b6200009981620000a2565b5050506200036b565b600680546001600160a01b038381166001600160a01b0319831681179093556040519116919082907f8be0079c531659141344cd1fd0a4f28419497f9722a3daafe3b4186f6b6457e0905f90a35050565b634e487b7160e01b5f52604160045260245ffd5b5f82601f83011262000117575f80fd5b81516001600160401b0380821115620001345762000134620000f3565b604051601f8301601f19908116603f011681019082821181831017156200015f576200015f620000f3565b816040528381526020925086838588010111156200017b575f80fd5b5f91505b838210156200019e57858201830151818301840152908201906200017f565b5f93810190920192909252949350505050565b5f8060408385031215620001c3575f80fd5b82516001600160401b0380821115620001da575f80fd5b620001e88683870162000107565b93506020850151915080821115620001fe575f80fd5b506200020d8582860162000107565b9150509250929050565b600181811c908216806200022c57607f821691505b6020821081036200024b57634e487b7160e01b5f52602260045260245ffd5b50919050565b601f8211156200029e575f81815260208120601f850160051c81016020861015620002795750805b601f850160051c820191505b818110156200029a5782815560010162000285565b5050505b505050565b81516001600160401b03811115620002bf57620002bf620000f3565b620002d781620002d0845462000217565b8462000251565b602080601f8311600181146200030d575f8415620002f55750858301515b5f19600386901b1c1916600185901b1785556200029a565b5f85815260208120601f198616915b828110156200033d578886015182559484019460019091019084016200031c565b50858210156200035b57878501515f19600388901b60f8161c191681555b5050505050600190811b01905550565b611b1480620003795f395ff3fe60806040526004361061013c575f3560e01c806370a08231116100b357806395d89b411161006d57806395d89b4114610371578063a22cb46514610385578063b88d4fde146103a4578063c87b56dd146103c3578063e985e9c5146103e2578063f2fde38b14610401575f80fd5b806370a08231146102b4578063715018a6146102e157806383b5daf7146102f55780638c0b9c54146103165780638da5cb5b146103355780639012c4a814610352575f80fd5b806323b872dd1161010457806323b872dd1461020c5780633ccfd60b1461022b57806342842e0e146102335780635ec163db146102525780636352211e14610282578063698d640c146102a1575f80fd5b806301ffc9a71461014057806306fdde0314610174578063081812fc14610195578063095ea7b3146101cc5780630ce90ec2146101ed575b5f80fd5b34801561014b575f80fd5b5061015f61015a3660046114f3565b610420565b60405190151581526020015b60405180910390f35b34801561017f575f80fd5b50610188610471565b60405161016b919061155b565b3480156101a0575f80fd5b506101b46101af36600461156d565b610500565b6040516001600160a01b03909116815260200161016b565b3480156101d7575f80fd5b506101eb6101e636600461159f565b610527565b005b3480156101f8575f80fd5b506101eb61020736600461156d565b610536565b348015610217575f80fd5b506101eb6102263660046115c7565b6105aa565b6101eb610638565b34801561023e575f80fd5b506101eb61024d3660046115c7565b610688565b34801561025d575f80fd5b5061027161026c36600461156d565b6106a7565b60405161016b959493929190611600565b34801561028d575f80fd5b506101b461029c36600461156d565b610776565b6101eb6102af3660046116c0565b610780565b3480156102bf575f80fd5b506102d36102ce366004611705565b61079a565b60405190815260200161016b565b3480156102ec575f80fd5b506101eb6107df565b348015610300575f80fd5b506103096107f2565b60405161016b919061171e565b348015610321575f80fd5b50610309610330366004611705565b610912565b348015610340575f80fd5b506006546001600160a01b03166101b4565b34801561035d575f80fd5b506101eb61036c36600461156d565b610afe565b34801561037c575f80fd5b50610188610b0b565b348015610390575f80fd5b506101eb61039f3660046117ba565b610b1a565b3480156103af575f80fd5b506101eb6103be3660046117f3565b610b25565b3480156103ce575f80fd5b506101886103dd36600461156d565b610b3c565b3480156103ed575f80fd5b5061015f6103fc36600461186a565b610bad565b34801561040c575f80fd5b506101eb61041b366004611705565b610bda565b5f6001600160e01b031982166380ac58cd60e01b148061045057506001600160e01b03198216635b5e139f60e01b145b8061046b57506301ffc9a760e01b6001600160e01b03198316145b92915050565b60605f805461047f9061189b565b80601f01602080910402602001604051908101604052809291908181526020018280546104ab9061189b565b80156104f65780601f106104cd576101008083540402835291602001916104f6565b820191905f5260205f20905b8154815290600101906020018083116104d957829003601f168201915b5050505050905090565b5f61050a82610c14565b505f828152600460205260409020546001600160a01b031661046b565b610532828233610c4c565b5050565b3361054082610776565b6001600160a01b031614610552575f80fd5b5f60098281548110610566576105666118d3565b5f918252602082206003600490920201908101805491935060ff9091169161058d836118fb565b91906101000a81548160ff021916908360ff160217905550505050565b6001600160a01b0382166105d857604051633250574960e11b81525f60048201526024015b60405180910390fd5b5f6105e4838333610c59565b9050836001600160a01b0316816001600160a01b031614610632576040516364283d7b60e01b81526001600160a01b03808616600483015260248201849052821660448201526064016105cf565b50505050565b610640610d4b565b5f6106536006546001600160a01b031690565b6040519091506001600160a01b038216904780156108fc02915f818181858888f19350505050158015610532573d5f803e3d5ffd5b6106a283838360405180602001604052805f815250610b25565b505050565b600981815481106106b6575f80fd5b905f5260205f2090600402015f91509050805f0180546106d59061189b565b80601f01602080910402602001604051908101604052809291908181526020018280546107019061189b565b801561074c5780601f106107235761010080835404028352916020019161074c565b820191905f5260205f20905b81548152906001019060200180831161072f57829003601f168201915b50505050600183015460028401546003909401549293909290915060ff8082169161010090041685565b5f61046b82610c14565b60085434101561078e575f80fd5b61079781610d78565b50565b5f6001600160a01b0382166107c4576040516322718ad960e21b81525f60048201526024016105cf565b506001600160a01b03165f9081526003602052604090205490565b6107e7610d4b565b6107f05f610eb2565b565b60606009805480602002602001604051908101604052809291908181526020015f905b82821015610909578382905f5260205f2090600402016040518060a00160405290815f820180546108459061189b565b80601f01602080910402602001604051908101604052809291908181526020018280546108719061189b565b80156108bc5780601f10610893576101008083540402835291602001916108bc565b820191905f5260205f20905b81548152906001019060200180831161089f57829003601f168201915b50505091835250506001828101546020808401919091526002840154604084015260039093015460ff80821660608501526101009091041660809092019190915291835292019101610815565b50505050905090565b60605f61091e8361079a565b67ffffffffffffffff81111561093657610936611639565b60405190808252806020026020018201604052801561099b57816020015b6109886040518060a00160405280606081526020015f81526020015f81526020015f60ff1681526020015f60ff1681525090565b8152602001906001900390816109545790505b5090505f805b600954811015610af557846001600160a01b03166109be82610776565b6001600160a01b031603610ae357600981815481106109df576109df6118d3565b905f5260205f2090600402016040518060a00160405290815f82018054610a059061189b565b80601f0160208091040260200160405190810160405280929190818152602001828054610a319061189b565b8015610a7c5780601f10610a5357610100808354040283529160200191610a7c565b820191905f5260205f20905b815481529060010190602001808311610a5f57829003601f168201915b5050509183525050600182015460208201526002820154604082015260039091015460ff8082166060840152610100909104166080909101528351849084908110610ac957610ac96118d3565b60200260200101819052508180610adf90611919565b9250505b80610aed81611919565b9150506109a1565b50909392505050565b610b06610d4b565b600855565b60606001805461047f9061189b565b610532338383610f03565b610b308484846105aa565b61063284848484610fa1565b6060610b4782610c14565b505f610b5d60408051602081019091525f815290565b90505f815111610b7b5760405180602001604052805f815250610ba6565b80610b85846110c7565b604051602001610b96929190611931565b6040516020818303038152906040525b9392505050565b6001600160a01b039182165f90815260056020908152604080832093909416825291909152205460ff1690565b610be2610d4b565b6001600160a01b038116610c0b57604051631e4fbdf760e01b81525f60048201526024016105cf565b61079781610eb2565b5f818152600260205260408120546001600160a01b03168061046b57604051637e27328960e01b8152600481018490526024016105cf565b6106a28383836001611157565b5f828152600260205260408120546001600160a01b0390811690831615610c8557610c8581848661125b565b6001600160a01b03811615610cbf57610ca05f855f80611157565b6001600160a01b0381165f90815260036020526040902080545f190190555b6001600160a01b03851615610ced576001600160a01b0385165f908152600360205260409020805460010190555b5f8481526002602052604080822080546001600160a01b0319166001600160a01b0389811691821790925591518793918516917fddf252ad1be2c89b69c2b068fc378daa952ba7f163c4a11628f55a4df523b3ef91a4949350505050565b6006546001600160a01b031633146107f05760405163118cdaa760e01b81523360048201526024016105cf565b5f610d8360646112bf565b90505f610d96662386f26fc100006112bf565b6040805160a081018252858152600754602082015290810182905260016060820181905260ff851660808301526009805491820181555f528151929350909182916004027f6e1540171b6c0c960b71a7020d9f60077f6af931a8bbf590da0223dacf75c7af01908190610e0990826119ac565b50602082015160018201556040820151600282015560608201516003909101805460809093015160ff9081166101000261ffff19909416921691909117919091179055600754610e5a903390611313565b600754604080519182526020820184905233917f24d2d558f98bdd9d21339e119fc0b03e213c7d05affd838ac2ee136d90e3bbeb910160405180910390a260078054905f610ea783611919565b919050555050505050565b600680546001600160a01b038381166001600160a01b0319831681179093556040519116919082907f8be0079c531659141344cd1fd0a4f28419497f9722a3daafe3b4186f6b6457e0905f90a35050565b6001600160a01b038216610f3557604051630b61174360e31b81526001600160a01b03831660048201526024016105cf565b6001600160a01b038381165f81815260056020908152604080832094871680845294825291829020805460ff191686151590811790915591519182527f17307eab39ab6107e8899845ad3d59bd9653f200f220920489ca2b5937696c31910160405180910390a3505050565b6001600160a01b0383163b1561063257604051630a85bd0160e11b81526001600160a01b0384169063150b7a0290610fe3903390889087908790600401611a68565b6020604051808303815f875af192505050801561101d575060408051601f3d908101601f1916820190925261101a91810190611aa4565b60015b611084573d80801561104a576040519150601f19603f3d011682016040523d82523d5f602084013e61104f565b606091505b5080515f0361107c57604051633250574960e11b81526001600160a01b03851660048201526024016105cf565b805181602001fd5b6001600160e01b03198116630a85bd0160e11b146110c057604051633250574960e11b81526001600160a01b03851660048201526024016105cf565b5050505050565b60605f6110d38361132c565b60010190505f8167ffffffffffffffff8111156110f2576110f2611639565b6040519080825280601f01601f19166020018201604052801561111c576020820181803683370190505b5090508181016020015b5f19016f181899199a1a9b1b9c1cb0b131b232b360811b600a86061a8153600a850494508461112657509392505050565b808061116b57506001600160a01b03821615155b1561122c575f61117a84610c14565b90506001600160a01b038316158015906111a65750826001600160a01b0316816001600160a01b031614155b80156111b957506111b78184610bad565b155b156111e25760405163a9fbf51f60e01b81526001600160a01b03841660048201526024016105cf565b811561122a5783856001600160a01b0316826001600160a01b03167f8c5be1e5ebec7d5bd14f71427d1e84f3dd0314c0f7b2291e5b200ac8c7c3b92560405160405180910390a45b505b50505f90815260046020526040902080546001600160a01b0319166001600160a01b0392909216919091179055565b611266838383611403565b6106a2576001600160a01b03831661129457604051637e27328960e01b8152600481018290526024016105cf565b60405163177e802f60e01b81526001600160a01b0383166004820152602481018290526044016105cf565b5f8042336040516020016112ef92919091825260601b6bffffffffffffffffffffffff1916602082015260340190565b60408051601f1981840301815291905280516020909101209050610ba68382611abf565b610532828260405180602001604052805f815250611467565b5f8072184f03e93ff9f4daa797ed6e38ed64bf6a1f0160401b831061136a5772184f03e93ff9f4daa797ed6e38ed64bf6a1f0160401b830492506040015b6d04ee2d6d415b85acef81000000008310611396576d04ee2d6d415b85acef8100000000830492506020015b662386f26fc1000083106113b457662386f26fc10000830492506010015b6305f5e10083106113cc576305f5e100830492506008015b61271083106113e057612710830492506004015b606483106113f2576064830492506002015b600a831061046b5760010192915050565b5f6001600160a01b0383161580159061145f5750826001600160a01b0316846001600160a01b0316148061143c575061143c8484610bad565b8061145f57505f828152600460205260409020546001600160a01b038481169116145b949350505050565b611471838361147d565b6106a25f848484610fa1565b6001600160a01b0382166114a657604051633250574960e11b81525f60048201526024016105cf565b5f6114b283835f610c59565b90506001600160a01b038116156106a2576040516339e3563760e11b81525f60048201526024016105cf565b6001600160e01b031981168114610797575f80fd5b5f60208284031215611503575f80fd5b8135610ba6816114de565b5f5b83811015611528578181015183820152602001611510565b50505f910152565b5f815180845261154781602086016020860161150e565b601f01601f19169290920160200192915050565b602081525f610ba66020830184611530565b5f6020828403121561157d575f80fd5b5035919050565b80356001600160a01b038116811461159a575f80fd5b919050565b5f80604083850312156115b0575f80fd5b6115b983611584565b946020939093013593505050565b5f805f606084860312156115d9575f80fd5b6115e284611584565b92506115f060208501611584565b9150604084013590509250925092565b60a081525f61161260a0830188611530565b602083019690965250604081019390935260ff918216606084015216608090910152919050565b634e487b7160e01b5f52604160045260245ffd5b5f67ffffffffffffffff8084111561166757611667611639565b604051601f8501601f19908116603f0116810190828211818310171561168f5761168f611639565b816040528093508581528686860111156116a7575f80fd5b858560208301375f602087830101525050509392505050565b5f602082840312156116d0575f80fd5b813567ffffffffffffffff8111156116e6575f80fd5b8201601f810184136116f6575f80fd5b61145f8482356020840161164d565b5f60208284031215611715575f80fd5b610ba682611584565b5f6020808301818452808551808352604092508286019150828160051b8701018488015f5b838110156117ac57603f19898403018552815160a0815181865261176982870182611530565b838b0151878c0152898401518a88015260608085015160ff9081169189019190915260809485015116939096019290925250509386019390860190600101611743565b509098975050505050505050565b5f80604083850312156117cb575f80fd5b6117d483611584565b9150602083013580151581146117e8575f80fd5b809150509250929050565b5f805f8060808587031215611806575f80fd5b61180f85611584565b935061181d60208601611584565b925060408501359150606085013567ffffffffffffffff81111561183f575f80fd5b8501601f8101871361184f575f80fd5b61185e8782356020840161164d565b91505092959194509250565b5f806040838503121561187b575f80fd5b61188483611584565b915061189260208401611584565b90509250929050565b600181811c908216806118af57607f821691505b6020821081036118cd57634e487b7160e01b5f52602260045260245ffd5b50919050565b634e487b7160e01b5f52603260045260245ffd5b634e487b7160e01b5f52601160045260245ffd5b5f60ff821660ff8103611910576119106118e7565b60010192915050565b5f6001820161192a5761192a6118e7565b5060010190565b5f835161194281846020880161150e565b83519083019061195681836020880161150e565b01949350505050565b601f8211156106a2575f81815260208120601f850160051c810160208610156119855750805b601f850160051c820191505b818110156119a457828155600101611991565b505050505050565b815167ffffffffffffffff8111156119c6576119c6611639565b6119da816119d4845461189b565b8461195f565b602080601f831160018114611a0d575f84156119f65750858301515b5f19600386901b1c1916600185901b1785556119a4565b5f85815260208120601f198616915b82811015611a3b57888601518255948401946001909101908401611a1c565b5085821015611a5857878501515f19600388901b60f8161c191681555b5050505050600190811b01905550565b6001600160a01b03858116825284166020820152604081018390526080606082018190525f90611a9a90830184611530565b9695505050505050565b5f60208284031215611ab4575f80fd5b8151610ba6816114de565b5f82611ad957634e487b7160e01b5f52601260045260245ffd5b50069056fea264697066735822122070491a7a60a609e5d3121113fa7858ca03c4ac39e00f7d71bbd2c76cacbb889364736f6c63430008140033",
  "immutableReferences": {},
  "source": "// SPDX-License-Identifier: MIT\r\n\r\npragma solidity ^0.8.0;\r\n\r\nimport \"@openzeppelin/contracts/token/ERC721/ERC721.sol\";\r\nimport \"@openzeppelin/contracts/access/Ownable.sol\";\r\n\r\ncontract LipToken is ERC721, Ownable {\r\n  constructor(string memory _name, string memory _symbol) Ownable(msg.sender)\r\n    ERC721(_name, _symbol)\r\n  {}\r\n\r\n  uint256 COUNTER;\r\n\r\n  uint256 fee = 0.01 ether;\r\n\r\n  struct Lip {\r\n    string name;\r\n    uint256 id;\r\n    uint256 dna;\r\n    uint8 level;\r\n    uint8 rarity;\r\n  }\r\n\r\n  Lip[] public lips;\r\n\r\n  event NewLip(address indexed owner, uint256 id, uint256 dna);\r\n\r\n  // Helpers\r\n  function _createRandomNum(uint256 _mod) internal view returns (uint256) {\r\n    uint256 randomNum = uint256(\r\n      keccak256(abi.encodePacked(block.timestamp, msg.sender))\r\n    );\r\n    return randomNum % _mod;\r\n  }\r\n\r\n  function updateFee(uint256 _fee) external onlyOwner {\r\n    fee = _fee;\r\n  }\r\n\r\n  function withdraw() external payable onlyOwner {\r\n    address payable _owner = payable(owner());\r\n    _owner.transfer(address(this).balance);\r\n  }\r\n\r\n  // Creation\r\n  function _createLip(string memory _name) internal {\r\n    uint8 randRarity = uint8(_createRandomNum(100));\r\n    uint256 randDna = _createRandomNum(10**16);\r\n    Lip memory newLip = Lip(_name, COUNTER, randDna, 1, randRarity);\r\n    lips.push(newLip);\r\n    _safeMint(msg.sender, COUNTER);\r\n    emit NewLip(msg.sender, COUNTER, randDna);\r\n    COUNTER++;\r\n  }\r\n\r\n  function createRandomLip(string memory _name) public payable {\r\n    require(msg.value >= fee);\r\n    _createLip(_name);\r\n  }\r\n\r\n  // Getters\r\n  function getLips() public view returns (Lip[] memory) {\r\n    return lips;\r\n  }\r\n\r\n  function getOwnerLips(address _owner) public view returns (Lip[] memory) {\r\n    Lip[] memory result = new Lip[](balanceOf(_owner));\r\n    uint256 counter = 0;\r\n    for (uint256 i = 0; i < lips.length; i++) {\r\n      if (ownerOf(i) == _owner) {\r\n        result[counter] = lips[i];\r\n        counter++;\r\n      }\r\n    }\r\n    return result;\r\n  }\r\n\r\n  // Actions\r\n  function levelUp(uint256 _lipId) public {\r\n    require(ownerOf(_lipId) == msg.sender);\r\n    Lip storage lip = lips[_lipId];\r\n    lip.level++;\r\n  }\r\n}\r\n",
  "sourcePath": "C:\\Users\\phap1\\Documents\\CNM\\source\\CNM-blockchain-project\\contracts\\LipToken.sol",
  "compiler": {
    "name": "solc",
    "version": "0.8.20+commit.a1b79de6.Emscripten.clang"
  },
  "schemaVersion": "3.4.16",
  "updatedAt": "2024-09-11T03:23:37.665Z",
  "devdoc": {
    "errors": {
      "ERC721IncorrectOwner(address,uint256,address)": [
        {
          "details": "Indicates an error related to the ownership over a particular token. Used in transfers.",
          "params": {
            "owner": "Address of the current owner of a token.",
            "sender": "Address whose tokens are being transferred.",
            "tokenId": "Identifier number of a token."
          }
        }
      ],
      "ERC721InsufficientApproval(address,uint256)": [
        {
          "details": "Indicates a failure with the `operator`s approval. Used in transfers.",
          "params": {
            "operator": "Address that may be allowed to operate on tokens without being their owner.",
            "tokenId": "Identifier number of a token."
          }
        }
      ],
      "ERC721InvalidApprover(address)": [
        {
          "details": "Indicates a failure with the `approver` of a token to be approved. Used in approvals.",
          "params": {
            "approver": "Address initiating an approval operation."
          }
        }
      ],
      "ERC721InvalidOperator(address)": [
        {
          "details": "Indicates a failure with the `operator` to be approved. Used in approvals.",
          "params": {
            "operator": "Address that may be allowed to operate on tokens without being their owner."
          }
        }
      ],
      "ERC721InvalidOwner(address)": [
        {
          "details": "Indicates that an address can't be an owner. For example, `address(0)` is a forbidden owner in EIP-20. Used in balance queries.",
          "params": {
            "owner": "Address of the current owner of a token."
          }
        }
      ],
      "ERC721InvalidReceiver(address)": [
        {
          "details": "Indicates a failure with the token `receiver`. Used in transfers.",
          "params": {
            "receiver": "Address to which tokens are being transferred."
          }
        }
      ],
      "ERC721InvalidSender(address)": [
        {
          "details": "Indicates a failure with the token `sender`. Used in transfers.",
          "params": {
            "sender": "Address whose tokens are being transferred."
          }
        }
      ],
      "ERC721NonexistentToken(uint256)": [
        {
          "details": "Indicates a `tokenId` whose `owner` is the zero address.",
          "params": {
            "tokenId": "Identifier number of a token."
          }
        }
      ],
      "OwnableInvalidOwner(address)": [
        {
          "details": "The owner is not a valid owner account. (eg. `address(0)`)"
        }
      ],
      "OwnableUnauthorizedAccount(address)": [
        {
          "details": "The caller account is not authorized to perform an operation."
        }
      ]
    },
    "events": {
      "Approval(address,address,uint256)": {
        "details": "Emitted when `owner` enables `approved` to manage the `tokenId` token."
      },
      "ApprovalForAll(address,address,bool)": {
        "details": "Emitted when `owner` enables or disables (`approved`) `operator` to manage all of its assets."
      },
      "Transfer(address,address,uint256)": {
        "details": "Emitted when `tokenId` token is transferred from `from` to `to`."
      }
    },
    "kind": "dev",
    "methods": {
      "approve(address,uint256)": {
        "details": "See {IERC721-approve}."
      },
      "balanceOf(address)": {
        "details": "See {IERC721-balanceOf}."
      },
      "getApproved(uint256)": {
        "details": "See {IERC721-getApproved}."
      },
      "isApprovedForAll(address,address)": {
        "details": "See {IERC721-isApprovedForAll}."
      },
      "name()": {
        "details": "See {IERC721Metadata-name}."
      },
      "owner()": {
        "details": "Returns the address of the current owner."
      },
      "ownerOf(uint256)": {
        "details": "See {IERC721-ownerOf}."
      },
      "renounceOwnership()": {
        "details": "Leaves the contract without owner. It will not be possible to call `onlyOwner` functions. Can only be called by the current owner. NOTE: Renouncing ownership will leave the contract without an owner, thereby disabling any functionality that is only available to the owner."
      },
      "safeTransferFrom(address,address,uint256)": {
        "details": "See {IERC721-safeTransferFrom}."
      },
      "safeTransferFrom(address,address,uint256,bytes)": {
        "details": "See {IERC721-safeTransferFrom}."
      },
      "setApprovalForAll(address,bool)": {
        "details": "See {IERC721-setApprovalForAll}."
      },
      "supportsInterface(bytes4)": {
        "details": "See {IERC165-supportsInterface}."
      },
      "symbol()": {
        "details": "See {IERC721Metadata-symbol}."
      },
      "tokenURI(uint256)": {
        "details": "See {IERC721Metadata-tokenURI}."
      },
      "transferFrom(address,address,uint256)": {
        "details": "See {IERC721-transferFrom}."
      },
      "transferOwnership(address)": {
        "details": "Transfers ownership of the contract to a new account (`newOwner`). Can only be called by the current owner."
      }
    },
    "version": 1
  },
  "userdoc": {
    "kind": "user",
    "methods": {},
    "version": 1
  }
}