{
  "contractName": "LipToken",
  "abi": [
    {
      "inputs": [
        {
          "internalType": "string",
          "name": "_name",
          "type": "string"
        },
        {
          "internalType": "string",
          "name": "_symbol",
          "type": "string"
        }
      ],
      "stateMutability": "nonpayable",
      "type": "constructor"
    },
    {
      "anonymous": false,
      "inputs": [
        {
          "indexed": true,
          "internalType": "address",
          "name": "owner",
          "type": "address"
        },
        {
          "indexed": true,
          "internalType": "address",
          "name": "approved",
          "type": "address"
        },
        {
          "indexed": true,
          "internalType": "uint256",
          "name": "tokenId",
          "type": "uint256"
        }
      ],
      "name": "Approval",
      "type": "event"
    },
    {
      "anonymous": false,
      "inputs": [
        {
          "indexed": true,
          "internalType": "address",
          "name": "owner",
          "type": "address"
        },
        {
          "indexed": true,
          "internalType": "address",
          "name": "operator",
          "type": "address"
        },
        {
          "indexed": false,
          "internalType": "bool",
          "name": "approved",
          "type": "bool"
        }
      ],
      "name": "ApprovalForAll",
      "type": "event"
    },
    {
      "anonymous": false,
      "inputs": [
        {
          "indexed": true,
          "internalType": "address",
          "name": "owner",
          "type": "address"
        },
        {
          "indexed": false,
          "internalType": "uint256",
          "name": "id",
          "type": "uint256"
        },
        {
          "indexed": false,
          "internalType": "uint256",
          "name": "dna",
          "type": "uint256"
        }
      ],
      "name": "NewLip",
      "type": "event"
    },
    {
      "anonymous": false,
      "inputs": [
        {
          "indexed": true,
          "internalType": "address",
          "name": "previousOwner",
          "type": "address"
        },
        {
          "indexed": true,
          "internalType": "address",
          "name": "newOwner",
          "type": "address"
        }
      ],
      "name": "OwnershipTransferred",
      "type": "event"
    },
    {
      "anonymous": false,
      "inputs": [
        {
          "indexed": true,
          "internalType": "address",
          "name": "from",
          "type": "address"
        },
        {
          "indexed": true,
          "internalType": "address",
          "name": "to",
          "type": "address"
        },
        {
          "indexed": true,
          "internalType": "uint256",
          "name": "tokenId",
          "type": "uint256"
        }
      ],
      "name": "Transfer",
      "type": "event"
    },
    {
      "inputs": [
        {
          "internalType": "address",
          "name": "to",
          "type": "address"
        },
        {
          "internalType": "uint256",
          "name": "tokenId",
          "type": "uint256"
        }
      ],
      "name": "approve",
      "outputs": [],
      "stateMutability": "nonpayable",
      "type": "function"
    },
    {
      "inputs": [
        {
          "internalType": "address",
          "name": "owner",
          "type": "address"
        }
      ],
      "name": "balanceOf",
      "outputs": [
        {
          "internalType": "uint256",
          "name": "",
          "type": "uint256"
        }
      ],
      "stateMutability": "view",
      "type": "function",
      "constant": true
    },
    {
      "inputs": [
        {
          "internalType": "uint256",
          "name": "tokenId",
          "type": "uint256"
        }
      ],
      "name": "getApproved",
      "outputs": [
        {
          "internalType": "address",
          "name": "",
          "type": "address"
        }
      ],
      "stateMutability": "view",
      "type": "function",
      "constant": true
    },
    {
      "inputs": [
        {
          "internalType": "address",
          "name": "owner",
          "type": "address"
        },
        {
          "internalType": "address",
          "name": "operator",
          "type": "address"
        }
      ],
      "name": "isApprovedForAll",
      "outputs": [
        {
          "internalType": "bool",
          "name": "",
          "type": "bool"
        }
      ],
      "stateMutability": "view",
      "type": "function",
      "constant": true
    },
    {
      "inputs": [
        {
          "internalType": "uint256",
          "name": "",
          "type": "uint256"
        }
      ],
      "name": "lips",
      "outputs": [
        {
          "internalType": "string",
          "name": "name",
          "type": "string"
        },
        {
          "internalType": "uint256",
          "name": "id",
          "type": "uint256"
        },
        {
          "internalType": "uint256",
          "name": "dna",
          "type": "uint256"
        },
        {
          "internalType": "uint8",
          "name": "level",
          "type": "uint8"
        },
        {
          "internalType": "uint8",
          "name": "rarity",
          "type": "uint8"
        }
      ],
      "stateMutability": "view",
      "type": "function",
      "constant": true
    },
    {
      "inputs": [],
      "name": "name",
      "outputs": [
        {
          "internalType": "string",
          "name": "",
          "type": "string"
        }
      ],
      "stateMutability": "view",
      "type": "function",
      "constant": true
    },
    {
      "inputs": [],
      "name": "owner",
      "outputs": [
        {
          "internalType": "address",
          "name": "",
          "type": "address"
        }
      ],
      "stateMutability": "view",
      "type": "function",
      "constant": true
    },
    {
      "inputs": [
        {
          "internalType": "uint256",
          "name": "tokenId",
          "type": "uint256"
        }
      ],
      "name": "ownerOf",
      "outputs": [
        {
          "internalType": "address",
          "name": "",
          "type": "address"
        }
      ],
      "stateMutability": "view",
      "type": "function",
      "constant": true
    },
    {
      "inputs": [],
      "name": "renounceOwnership",
      "outputs": [],
      "stateMutability": "nonpayable",
      "type": "function"
    },
    {
      "inputs": [
        {
          "internalType": "address",
          "name": "from",
          "type": "address"
        },
        {
          "internalType": "address",
          "name": "to",
          "type": "address"
        },
        {
          "internalType": "uint256",
          "name": "tokenId",
          "type": "uint256"
        }
      ],
      "name": "safeTransferFrom",
      "outputs": [],
      "stateMutability": "nonpayable",
      "type": "function"
    },
    {
      "inputs": [
        {
          "internalType": "address",
          "name": "from",
          "type": "address"
        },
        {
          "internalType": "address",
          "name": "to",
          "type": "address"
        },
        {
          "internalType": "uint256",
          "name": "tokenId",
          "type": "uint256"
        },
        {
          "internalType": "bytes",
          "name": "data",
          "type": "bytes"
        }
      ],
      "name": "safeTransferFrom",
      "outputs": [],
      "stateMutability": "nonpayable",
      "type": "function"
    },
    {
      "inputs": [
        {
          "internalType": "address",
          "name": "operator",
          "type": "address"
        },
        {
          "internalType": "bool",
          "name": "approved",
          "type": "bool"
        }
      ],
      "name": "setApprovalForAll",
      "outputs": [],
      "stateMutability": "nonpayable",
      "type": "function"
    },
    {
      "inputs": [
        {
          "internalType": "bytes4",
          "name": "interfaceId",
          "type": "bytes4"
        }
      ],
      "name": "supportsInterface",
      "outputs": [
        {
          "internalType": "bool",
          "name": "",
          "type": "bool"
        }
      ],
      "stateMutability": "view",
      "type": "function",
      "constant": true
    },
    {
      "inputs": [],
      "name": "symbol",
      "outputs": [
        {
          "internalType": "string",
          "name": "",
          "type": "string"
        }
      ],
      "stateMutability": "view",
      "type": "function",
      "constant": true
    },
    {
      "inputs": [
        {
          "internalType": "uint256",
          "name": "tokenId",
          "type": "uint256"
        }
      ],
      "name": "tokenURI",
      "outputs": [
        {
          "internalType": "string",
          "name": "",
          "type": "string"
        }
      ],
      "stateMutability": "view",
      "type": "function",
      "constant": true
    },
    {
      "inputs": [
        {
          "internalType": "address",
          "name": "from",
          "type": "address"
        },
        {
          "internalType": "address",
          "name": "to",
          "type": "address"
        },
        {
          "internalType": "uint256",
          "name": "tokenId",
          "type": "uint256"
        }
      ],
      "name": "transferFrom",
      "outputs": [],
      "stateMutability": "nonpayable",
      "type": "function"
    },
    {
      "inputs": [
        {
          "internalType": "address",
          "name": "newOwner",
          "type": "address"
        }
      ],
      "name": "transferOwnership",
      "outputs": [],
      "stateMutability": "nonpayable",
      "type": "function"
    },
    {
      "inputs": [
        {
          "internalType": "uint256",
          "name": "_fee",
          "type": "uint256"
        }
      ],
      "name": "updateFee",
      "outputs": [],
      "stateMutability": "nonpayable",
      "type": "function"
    },
    {
      "inputs": [],
      "name": "withdraw",
      "outputs": [],
      "stateMutability": "payable",
      "type": "function",
      "payable": true
    },
    {
      "inputs": [
        {
          "internalType": "string",
          "name": "_name",
          "type": "string"
        }
      ],
      "name": "createRandomLip",
      "outputs": [],
      "stateMutability": "payable",
      "type": "function",
      "payable": true
    },
    {
      "inputs": [],
      "name": "getLips",
      "outputs": [
        {
          "components": [
            {
              "internalType": "string",
              "name": "name",
              "type": "string"
            },
            {
              "internalType": "uint256",
              "name": "id",
              "type": "uint256"
            },
            {
              "internalType": "uint256",
              "name": "dna",
              "type": "uint256"
            },
            {
              "internalType": "uint8",
              "name": "level",
              "type": "uint8"
            },
            {
              "internalType": "uint8",
              "name": "rarity",
              "type": "uint8"
            }
          ],
          "internalType": "struct LipToken.Lip[]",
          "name": "",
          "type": "tuple[]"
        }
      ],
      "stateMutability": "view",
      "type": "function",
      "constant": true
    },
    {
      "inputs": [
        {
          "internalType": "address",
          "name": "_owner",
          "type": "address"
        }
      ],
      "name": "getOwnerLips",
      "outputs": [
        {
          "components": [
            {
              "internalType": "string",
              "name": "name",
              "type": "string"
            },
            {
              "internalType": "uint256",
              "name": "id",
              "type": "uint256"
            },
            {
              "internalType": "uint256",
              "name": "dna",
              "type": "uint256"
            },
            {
              "internalType": "uint8",
              "name": "level",
              "type": "uint8"
            },
            {
              "internalType": "uint8",
              "name": "rarity",
              "type": "uint8"
            }
          ],
          "internalType": "struct LipToken.Lip[]",
          "name": "",
          "type": "tuple[]"
        }
      ],
      "stateMutability": "view",
      "type": "function",
      "constant": true
    },
    {
      "inputs": [
        {
          "internalType": "uint256",
          "name": "_lipId",
          "type": "uint256"
        }
      ],
      "name": "levelUp",
      "outputs": [],
      "stateMutability": "nonpayable",
      "type": "function"
    }
  ],
  "bytecode": "0x6080604052662386f26fc100006008553480156200001c57600080fd5b506040516200231a3803806200231a8339810160408190526200003f9162000242565b81518290829062000058906000906020850190620000e9565b5080516200006e906001906020840190620000e9565b5050506200008b620000856200009360201b60201c565b62000097565b5050620002fc565b3390565b600680546001600160a01b038381166001600160a01b0319831681179093556040519116919082907f8be0079c531659141344cd1fd0a4f28419497f9722a3daafe3b4186f6b6457e090600090a35050565b828054620000f790620002a9565b90600052602060002090601f0160209004810192826200011b576000855562000166565b82601f106200013657805160ff191683800117855562000166565b8280016001018555821562000166579182015b828111156200016657825182559160200191906001019062000149565b506200017492915062000178565b5090565b5b8082111562000174576000815560010162000179565b600082601f830112620001a0578081fd5b81516001600160401b0380821115620001bd57620001bd620002e6565b604051601f8301601f19908116603f01168101908282118183101715620001e857620001e8620002e6565b8160405283815260209250868385880101111562000204578485fd5b8491505b8382101562000227578582018301518183018401529082019062000208565b838211156200023857848385830101525b9695505050505050565b6000806040838503121562000255578182fd5b82516001600160401b03808211156200026c578384fd5b6200027a868387016200018f565b9350602085015191508082111562000290578283fd5b506200029f858286016200018f565b9150509250929050565b600281046001821680620002be57607f821691505b60208210811415620002e057634e487b7160e01b600052602260045260246000fd5b50919050565b634e487b7160e01b600052604160045260246000fd5b61200e806200030c6000396000f3fe6080604052600436106101405760003560e01c806370a08231116100b657806395d89b411161006f57806395d89b4114610371578063a22cb46514610386578063b88d4fde146103a6578063c87b56dd146103c6578063e985e9c5146103e6578063f2fde38b1461040657610140565b806370a08231146102b8578063715018a6146102e557806383b5daf7146102fa5780638c0b9c541461031c5780638da5cb5b1461033c5780639012c4a81461035157610140565b806323b872dd1161010857806323b872dd1461020c5780633ccfd60b1461022c57806342842e0e146102345780635ec163db146102545780636352211e14610285578063698d640c146102a557610140565b806301ffc9a71461014557806306fdde031461017b578063081812fc1461019d578063095ea7b3146101ca5780630ce90ec2146101ec575b600080fd5b34801561015157600080fd5b50610165610160366004611904565b610426565b6040516101729190611b01565b60405180910390f35b34801561018757600080fd5b5061019061046e565b6040516101729190611b0c565b3480156101a957600080fd5b506101bd6101b8366004611982565b610500565b6040516101729190611a15565b3480156101d657600080fd5b506101ea6101e53660046118db565b610527565b005b3480156101f857600080fd5b506101ea610207366004611982565b6105c8565b34801561021857600080fd5b506101ea6102273660046117ed565b61064d565b6101ea610685565b34801561024057600080fd5b506101ea61024f3660046117ed565b6106d3565b34801561026057600080fd5b5061027461026f366004611982565b6106ee565b604051610172959493929190611b1f565b34801561029157600080fd5b506101bd6102a0366004611982565b6107c4565b6101ea6102b336600461193c565b6107f8565b3480156102c457600080fd5b506102d86102d33660046117a1565b610813565b6040516101729190611ebd565b3480156102f157600080fd5b506101ea610857565b34801561030657600080fd5b5061030f61086b565b6040516101729190611a66565b34801561032857600080fd5b5061030f6103373660046117a1565b610991565b34801561034857600080fd5b506101bd610b83565b34801561035d57600080fd5b506101ea61036c366004611982565b610b92565b34801561037d57600080fd5b50610190610b9f565b34801561039257600080fd5b506101ea6103a13660046118a1565b610bae565b3480156103b257600080fd5b506101ea6103c1366004611828565b610bc0565b3480156103d257600080fd5b506101906103e1366004611982565b610bff565b3480156103f257600080fd5b506101656104013660046117bb565b610c66565b34801561041257600080fd5b506101ea6104213660046117a1565b610c94565b60006001600160e01b031982166380ac58cd60e01b148061045757506001600160e01b03198216635b5e139f60e01b145b80610466575061046682610ccb565b90505b919050565b60606000805461047d90611f00565b80601f01602080910402602001604051908101604052809291908181526020018280546104a990611f00565b80156104f65780601f106104cb576101008083540402835291602001916104f6565b820191906000526020600020905b8154815290600101906020018083116104d957829003601f168201915b5050505050905090565b600061050b82610ce4565b506000908152600460205260409020546001600160a01b031690565b6000610532826107c4565b9050806001600160a01b0316836001600160a01b0316141561056f5760405162461bcd60e51b815260040161056690611e1f565b60405180910390fd5b806001600160a01b0316610581610d09565b6001600160a01b0316148061059d575061059d81610401610d09565b6105b95760405162461bcd60e51b815260040161056690611e60565b6105c38383610d0d565b505050565b336105d2826107c4565b6001600160a01b0316146105e557600080fd5b60006009828154811061060857634e487b7160e01b600052603260045260246000fd5b6000918252602082206003600490920201908101805491935060ff9091169161063083611f56565b91906101000a81548160ff021916908360ff160217905550505050565b61065e610658610d09565b82610d7b565b61067a5760405162461bcd60e51b815260040161056690611b59565b6105c3838383610dda565b61068d610f17565b6000610697610b83565b6040519091506001600160a01b038216904780156108fc02916000818181858888f193505050501580156106cf573d6000803e3d6000fd5b5050565b6105c383838360405180602001604052806000815250610bc0565b600981815481106106fe57600080fd5b906000526020600020906004020160009150905080600001805461072190611f00565b80601f016020809104026020016040519081016040528092919081815260200182805461074d90611f00565b801561079a5780601f1061076f5761010080835404028352916020019161079a565b820191906000526020600020905b81548152906001019060200180831161077d57829003601f168201915b50505050600183015460028401546003909401549293909290915060ff8082169161010090041685565b6000806107d083610f56565b90506001600160a01b0381166104665760405162461bcd60e51b815260040161056690611de8565b60085434101561080757600080fd5b61081081610f71565b50565b60006001600160a01b03821661083b5760405162461bcd60e51b815260040161056690611d35565b506001600160a01b031660009081526003602052604090205490565b61085f610f17565b61086960006110c6565b565b60606009805480602002602001604051908101604052809291908181526020016000905b8282101561098857838290600052602060002090600402016040518060a00160405290816000820180546108c290611f00565b80601f01602080910402602001604051908101604052809291908181526020018280546108ee90611f00565b801561093b5780601f106109105761010080835404028352916020019161093b565b820191906000526020600020905b81548152906001019060200180831161091e57829003601f168201915b50505091835250506001828101546020808401919091526002840154604084015260039093015460ff8082166060850152610100909104166080909201919091529183529201910161088f565b50505050905090565b6060600061099e83610813565b67ffffffffffffffff8111156109c457634e487b7160e01b600052604160045260246000fd5b6040519080825280602002602001820160405280156109fd57816020015b6109ea611646565b8152602001906001900390816109e25790505b5090506000805b600954811015610b7a57846001600160a01b0316610a21826107c4565b6001600160a01b03161415610b685760098181548110610a5157634e487b7160e01b600052603260045260246000fd5b90600052602060002090600402016040518060a0016040529081600082018054610a7a90611f00565b80601f0160208091040260200160405190810160405280929190818152602001828054610aa690611f00565b8015610af35780601f10610ac857610100808354040283529160200191610af3565b820191906000526020600020905b815481529060010190602001808311610ad657829003601f168201915b5050509183525050600182015460208201526002820154604082015260039091015460ff8082166060840152610100909104166080909101528351849084908110610b4e57634e487b7160e01b600052603260045260246000fd5b60200260200101819052508180610b6490611f3b565b9250505b80610b7281611f3b565b915050610a04565b50909392505050565b6006546001600160a01b031690565b610b9a610f17565b600855565b60606001805461047d90611f00565b6106cf610bb9610d09565b8383611118565b610bd1610bcb610d09565b83610d7b565b610bed5760405162461bcd60e51b815260040161056690611b59565b610bf9848484846111bb565b50505050565b6060610c0a82610ce4565b6000610c146111ee565b90506000815111610c345760405180602001604052806000815250610c5f565b80610c3e84611200565b604051602001610c4f9291906119c6565b6040516020818303038152906040525b9392505050565b6001600160a01b03918216600090815260056020908152604080832093909416825291909152205460ff1690565b610c9c610f17565b6001600160a01b038116610cc25760405162461bcd60e51b815260040161056690611bf8565b610810816110c6565b6001600160e01b031981166301ffc9a760e01b14919050565b610ced816112ab565b6108105760405162461bcd60e51b815260040161056690611de8565b3390565b600081815260046020526040902080546001600160a01b0319166001600160a01b0384169081179091558190610d42826107c4565b6001600160a01b03167f8c5be1e5ebec7d5bd14f71427d1e84f3dd0314c0f7b2291e5b200ac8c7c3b92560405160405180910390a45050565b600080610d87836107c4565b9050806001600160a01b0316846001600160a01b03161480610dae5750610dae8185610c66565b80610dd25750836001600160a01b0316610dc784610500565b6001600160a01b0316145b949350505050565b826001600160a01b0316610ded826107c4565b6001600160a01b031614610e135760405162461bcd60e51b815260040161056690611c3e565b6001600160a01b038216610e395760405162461bcd60e51b815260040161056690611cba565b610e468383836001610bf9565b826001600160a01b0316610e59826107c4565b6001600160a01b031614610e7f5760405162461bcd60e51b815260040161056690611c3e565b600081815260046020908152604080832080546001600160a01b03199081169091556001600160a01b0387811680865260038552838620805460001901905590871680865283862080546001019055868652600290945282852080549092168417909155905184937fddf252ad1be2c89b69c2b068fc378daa952ba7f163c4a11628f55a4df523b3ef91a46105c38383836001610bf9565b610f1f610d09565b6001600160a01b0316610f30610b83565b6001600160a01b0316146108695760405162461bcd60e51b815260040161056690611db3565b6000908152600260205260409020546001600160a01b031690565b6000610f7d60646112c8565b90506000610f91662386f26fc100006112c8565b6040805160a08101825285815260075460208083019190915291810183905260016060820181905260ff86166080830152600980549182018155600052815180519495509193849360049092027f6e1540171b6c0c960b71a7020d9f60077f6af931a8bbf590da0223dacf75c7af019261100f92849291019061167b565b50602082015160018201556040820151600282015560608201516003909101805460809093015160ff9081166101000261ff00199190931660ff199094169390931792909216179055600754611066903390611302565b336001600160a01b03167f24d2d558f98bdd9d21339e119fc0b03e213c7d05affd838ac2ee136d90e3bbeb600754846040516110a3929190611ec6565b60405180910390a2600780549060006110bb83611f3b565b919050555050505050565b600680546001600160a01b038381166001600160a01b0319831681179093556040519116919082907f8be0079c531659141344cd1fd0a4f28419497f9722a3daafe3b4186f6b6457e090600090a35050565b816001600160a01b0316836001600160a01b0316141561114a5760405162461bcd60e51b815260040161056690611cfe565b6001600160a01b0383811660008181526005602090815260408083209487168084529490915290819020805460ff1916851515179055517f17307eab39ab6107e8899845ad3d59bd9653f200f220920489ca2b5937696c31906111ae908590611b01565b60405180910390a3505050565b6111c6848484610dda565b6111d28484848461131c565b610bf95760405162461bcd60e51b815260040161056690611ba6565b60408051602081019091526000815290565b6060600061120d83611437565b600101905060008167ffffffffffffffff81111561123b57634e487b7160e01b600052604160045260246000fd5b6040519080825280601f01601f191660200182016040528015611265576020820181803683370190505b5090508181016020015b600019016f181899199a1a9b1b9c1cb0b131b232b360811b600a86061a8153600a850494508461129e576112a3565b61126f565b509392505050565b6000806112b783610f56565b6001600160a01b0316141592915050565b60008042336040516020016112de9291906119f5565b60408051601f1981840301815291905280516020909101209050610c5f8382611f76565b6106cf82826040518060200160405280600081525061150f565b6000611330846001600160a01b0316611542565b1561142c57836001600160a01b031663150b7a0261134c610d09565b8786866040518563ffffffff1660e01b815260040161136e9493929190611a29565b602060405180830381600087803b15801561138857600080fd5b505af19250505080156113b8575060408051601f3d908101601f191682019092526113b591810190611920565b60015b611412573d8080156113e6576040519150601f19603f3d011682016040523d82523d6000602084013e6113eb565b606091505b50805161140a5760405162461bcd60e51b815260040161056690611ba6565b805181602001fd5b6001600160e01b031916630a85bd0160e11b149050610dd2565b506001949350505050565b60008072184f03e93ff9f4daa797ed6e38ed64bf6a1f0160401b83106114765772184f03e93ff9f4daa797ed6e38ed64bf6a1f0160401b830492506040015b6d04ee2d6d415b85acef810000000083106114a2576d04ee2d6d415b85acef8100000000830492506020015b662386f26fc1000083106114c057662386f26fc10000830492506010015b6305f5e10083106114d8576305f5e100830492506008015b61271083106114ec57612710830492506004015b606483106114fe576064830492506002015b600a83106104665760010192915050565b6115198383611551565b611526600084848461131c565b6105c35760405162461bcd60e51b815260040161056690611ba6565b6001600160a01b03163b151590565b6001600160a01b0382166115775760405162461bcd60e51b815260040161056690611d7e565b611580816112ab565b1561159d5760405162461bcd60e51b815260040161056690611c83565b6115ab600083836001610bf9565b6115b4816112ab565b156115d15760405162461bcd60e51b815260040161056690611c83565b6001600160a01b038216600081815260036020908152604080832080546001019055848352600290915280822080546001600160a01b0319168417905551839291907fddf252ad1be2c89b69c2b068fc378daa952ba7f163c4a11628f55a4df523b3ef908290a46106cf600083836001610bf9565b6040518060a00160405280606081526020016000815260200160008152602001600060ff168152602001600060ff1681525090565b82805461168790611f00565b90600052602060002090601f0160209004810192826116a957600085556116ef565b82601f106116c257805160ff19168380011785556116ef565b828001600101855582156116ef579182015b828111156116ef5782518255916020019190600101906116d4565b506116fb9291506116ff565b5090565b5b808211156116fb5760008155600101611700565b600067ffffffffffffffff8084111561172f5761172f611fac565b604051601f8501601f19908116603f0116810190828211818310171561175757611757611fac565b8160405280935085815286868601111561177057600080fd5b858560208301376000602087830101525050509392505050565b80356001600160a01b038116811461046957600080fd5b6000602082840312156117b2578081fd5b610c5f8261178a565b600080604083850312156117cd578081fd5b6117d68361178a565b91506117e46020840161178a565b90509250929050565b600080600060608486031215611801578081fd5b61180a8461178a565b92506118186020850161178a565b9150604084013590509250925092565b6000806000806080858703121561183d578081fd5b6118468561178a565b93506118546020860161178a565b925060408501359150606085013567ffffffffffffffff811115611876578182fd5b8501601f81018713611886578182fd5b61189587823560208401611714565b91505092959194509250565b600080604083850312156118b3578182fd5b6118bc8361178a565b9150602083013580151581146118d0578182fd5b809150509250929050565b600080604083850312156118ed578182fd5b6118f68361178a565b946020939093013593505050565b600060208284031215611915578081fd5b8135610c5f81611fc2565b600060208284031215611931578081fd5b8151610c5f81611fc2565b60006020828403121561194d578081fd5b813567ffffffffffffffff811115611963578182fd5b8201601f81018413611973578182fd5b610dd284823560208401611714565b600060208284031215611993578081fd5b5035919050565b600081518084526119b2816020860160208601611ed4565b601f01601f19169290920160200192915050565b600083516119d8818460208801611ed4565b8351908301906119ec818360208801611ed4565b01949350505050565b91825260601b6bffffffffffffffffffffffff1916602082015260340190565b6001600160a01b0391909116815260200190565b6001600160a01b0385811682528416602082015260408101839052608060608201819052600090611a5c9083018461199a565b9695505050505050565b60208082528251828201819052600091906040908185019080840286018301878501865b83811015611af357603f19898403018552815160a08151818652611ab08287018261199a565b838b0151878c0152898401518a88015260608085015160ff9081169189019190915260809485015116939096019290925250509386019390860190600101611a8a565b509098975050505050505050565b901515815260200190565b600060208252610c5f602083018461199a565b600060a08252611b3260a083018861199a565b602083019690965250604081019390935260ff918216606084015216608090910152919050565b6020808252602d908201527f4552433732313a2063616c6c6572206973206e6f7420746f6b656e206f776e6560408201526c1c881bdc88185c1c1c9bdd9959609a1b606082015260800190565b60208082526032908201527f4552433732313a207472616e7366657220746f206e6f6e20455243373231526560408201527131b2b4bb32b91034b6b83632b6b2b73a32b960711b606082015260800190565b60208082526026908201527f4f776e61626c653a206e6577206f776e657220697320746865207a65726f206160408201526564647265737360d01b606082015260800190565b60208082526025908201527f4552433732313a207472616e736665722066726f6d20696e636f72726563742060408201526437bbb732b960d91b606082015260800190565b6020808252601c908201527f4552433732313a20746f6b656e20616c7265616479206d696e74656400000000604082015260600190565b60208082526024908201527f4552433732313a207472616e7366657220746f20746865207a65726f206164646040820152637265737360e01b606082015260800190565b60208082526019908201527f4552433732313a20617070726f766520746f2063616c6c657200000000000000604082015260600190565b60208082526029908201527f4552433732313a2061646472657373207a65726f206973206e6f7420612076616040820152683634b21037bbb732b960b91b606082015260800190565b6020808252818101527f4552433732313a206d696e7420746f20746865207a65726f2061646472657373604082015260600190565b6020808252818101527f4f776e61626c653a2063616c6c6572206973206e6f7420746865206f776e6572604082015260600190565b60208082526018908201527f4552433732313a20696e76616c696420746f6b656e2049440000000000000000604082015260600190565b60208082526021908201527f4552433732313a20617070726f76616c20746f2063757272656e74206f776e656040820152603960f91b606082015260800190565b6020808252603d908201527f4552433732313a20617070726f76652063616c6c6572206973206e6f7420746f60408201527f6b656e206f776e6572206f7220617070726f76656420666f7220616c6c000000606082015260800190565b90815260200190565b918252602082015260400190565b60005b83811015611eef578181015183820152602001611ed7565b83811115610bf95750506000910152565b600281046001821680611f1457607f821691505b60208210811415611f3557634e487b7160e01b600052602260045260246000fd5b50919050565b6000600019821415611f4f57611f4f611f96565b5060010190565b600060ff821660ff811415611f6d57611f6d611f96565b60010192915050565b600082611f9157634e487b7160e01b81526012600452602481fd5b500690565b634e487b7160e01b600052601160045260246000fd5b634e487b7160e01b600052604160045260246000fd5b6001600160e01b03198116811461081057600080fdfea2646970667358221220732e5d65cedfbac1bcb1ad1e37f1a36467ee360ab9bd3191bc9580880f8198de64736f6c63430008010033",
  "immutableReferences": {},
  "source": "// SPDX-License-Identifier: MIT\n\npragma solidity ^0.8.0;\n\nimport \"@openzeppelin/contracts/token/ERC721/ERC721.sol\";\nimport \"@openzeppelin/contracts/access/Ownable.sol\";\n\ncontract LipToken is ERC721, Ownable {\n  constructor(string memory _name, string memory _symbol)\n    ERC721(_name, _symbol)\n  {}\n\n  uint256 COUNTER;\n\n  uint256 fee = 0.01 ether;\n\n  struct Lip {\n    string name;\n    uint256 id;\n    uint256 dna;\n    uint8 level;\n    uint8 rarity;\n  }\n\n  Lip[] public lips;\n\n  event NewLip(address indexed owner, uint256 id, uint256 dna);\n\n  // Helpers\n  function _createRandomNum(uint256 _mod) internal view returns (uint256) {\n    uint256 randomNum = uint256(\n      keccak256(abi.encodePacked(block.timestamp, msg.sender))\n    );\n    return randomNum % _mod;\n  }\n\n  function updateFee(uint256 _fee) external onlyOwner {\n    fee = _fee;\n  }\n\n  function withdraw() external payable onlyOwner {\n    address payable _owner = payable(owner());\n    _owner.transfer(address(this).balance);\n  }\n\n  // Creation\n  function _createLip(string memory _name) internal {\n    uint8 randRarity = uint8(_createRandomNum(100));\n    uint256 randDna = _createRandomNum(10**16);\n    Lip memory newLip = Lip(_name, COUNTER, randDna, 1, randRarity);\n    lips.push(newLip);\n    _safeMint(msg.sender, COUNTER);\n    emit NewLip(msg.sender, COUNTER, randDna);\n    COUNTER++;\n  }\n\n  function createRandomLip(string memory _name) public payable {\n    require(msg.value >= fee);\n    _createLip(_name);\n  }\n\n  // Getters\n  function getLips() public view returns (Lip[] memory) {\n    return lips;\n  }\n\n  function getOwnerLips(address _owner) public view returns (Lip[] memory) {\n    Lip[] memory result = new Lip[](balanceOf(_owner));\n    uint256 counter = 0;\n    for (uint256 i = 0; i < lips.length; i++) {\n      if (ownerOf(i) == _owner) {\n        result[counter] = lips[i];\n        counter++;\n      }\n    }\n    return result;\n  }\n\n  // Actions\n  function levelUp(uint256 _lipId) public {\n    require(ownerOf(_lipId) == msg.sender);\n    Lip storage lip = lips[_lipId];\n    lip.level++;\n  }\n}\n",
  "sourcePath": "D:\\CNM-blockchain-project\\contracts\\LipToken.sol",
  "compiler": {
    "name": "solc",
    "version": "0.8.1+commit.df193b15.Emscripten.clang"
  },
  "schemaVersion": "3.4.16",
  "updatedAt": "2024-09-11T15:07:11.545Z",
  "networkType": "ethereum",
  "devdoc": {
    "kind": "dev",
    "methods": {
      "approve(address,uint256)": {
        "details": "See {IERC721-approve}."
      },
      "balanceOf(address)": {
        "details": "See {IERC721-balanceOf}."
      },
      "getApproved(uint256)": {
        "details": "See {IERC721-getApproved}."
      },
      "isApprovedForAll(address,address)": {
        "details": "See {IERC721-isApprovedForAll}."
      },
      "name()": {
        "details": "See {IERC721Metadata-name}."
      },
      "owner()": {
        "details": "Returns the address of the current owner."
      },
      "ownerOf(uint256)": {
        "details": "See {IERC721-ownerOf}."
      },
      "renounceOwnership()": {
        "details": "Leaves the contract without owner. It will not be possible to call `onlyOwner` functions. Can only be called by the current owner. NOTE: Renouncing ownership will leave the contract without an owner, thereby disabling any functionality that is only available to the owner."
      },
      "safeTransferFrom(address,address,uint256)": {
        "details": "See {IERC721-safeTransferFrom}."
      },
      "safeTransferFrom(address,address,uint256,bytes)": {
        "details": "See {IERC721-safeTransferFrom}."
      },
      "setApprovalForAll(address,bool)": {
        "details": "See {IERC721-setApprovalForAll}."
      },
      "supportsInterface(bytes4)": {
        "details": "See {IERC165-supportsInterface}."
      },
      "symbol()": {
        "details": "See {IERC721Metadata-symbol}."
      },
      "tokenURI(uint256)": {
        "details": "See {IERC721Metadata-tokenURI}."
      },
      "transferFrom(address,address,uint256)": {
        "details": "See {IERC721-transferFrom}."
      },
      "transferOwnership(address)": {
        "details": "Transfers ownership of the contract to a new account (`newOwner`). Can only be called by the current owner."
      }
    },
    "version": 1
  },
  "userdoc": {
    "kind": "user",
    "methods": {},
    "version": 1
  }
}